:040000006F00C05F6E
:100004000000000000000000C8020000CA02000056
:1000140000000000FA0500000000000000000000DD
:10002400FA050000FA0500000000000000000000CE
:10003400FA05000000000000FA05000000000000BE
:10004400FA050000FA050000FA050000FA050000B0
:10005400FA050000FA050000FA050000FA050000A0
:10006400FA050000FA050000FA050000FA05000090
:10007400FA050000FA050000FA050000FA05000080
:10008400FA050000FA050000FA050000FA05000070
:10009400FA050000FA050000FA050000FA05000060
:1000A400FA050000FA050000FA050000FA05000050
:1000B400FA05000014030000FA050000FA05000028
:1000C400FA050000FA050000FA050000FA05000030
:1000D400FA050000FA050000FA050000FA05000020
:1000E400FA050000FA050000FA050000FA05000010
:1000F400FA050000FA050000FA050000FA05000000
:1001040000000000FA050000FA050000FA050000EE
:10011400FA050000FA050000FA050000FA050000DF
:10012400FA050000FA050000FA050000FA050000CF
:10013400FA050000FA050000FA050000FA050000BF
:10014400FA050000FA050000FA050000FA050000AF
:10015400FA050000FA050000FA050000FA0500009F
:10016400FA050000FA050000FA050000FA0500008F
:10017400FA050000FA050000FA050000FA0500007F
:10018400FA050000FA050000FA050000FA0500006F
:10019400FA050000FA050000FA050000FA0500005F
:1001A400000000000000000000000000000000004B
:0C01B4000000000000000000000000003F
:1001C000397101436EC619A0397141536AC866CAB4
:1001D00062CC5ECE19A0397101535AD056D252D496
:1001E0004ED64AD826DA22DC06DE3301614082820E
:1001F00041114AC026C222C406C68282B24D4101C4
:10020000024D924C224CB24B4101024B924A224A7F
:10021000B2494101024992442244B24041018280E4
:100220003D432A876373C3029377F700BDEFADE5C3
:10023000937606FF3D8ABA960CC34CC30CC74CC7D5
:100240004107E36BD7FE11E28280B306C3408A0602
:100250009702000096966780A6002307B700A306C2
:10026000B7002306B700A305B7002305B700A30412
:10027000B7002304B700A303B7002303B700A3020A
:10028000B7002302B700A301B7002301B700A30002
:10029000B7002300B700828093F5F50F9396850091
:1002A000D58D93960501D58D61B79396270097025A
:1002B000000096968682E78086FA9680C1171D8F89
:1002C0003E96E374C3F8A5B701A0B707EFBE37E7C2
:1002D00000E0938707083CC701A0EFF27FF14111CE
:1002E0008545114502C202C402C699259307000341
:1002F000371401407C82D1473EC64C008D47130520
:1003000004803EC449269305000313050480892117
:10031000410109B7370500408545130505400D2704
:1003200011C59387C1829843050798C337050040DC
:100330008545130505400D2773002030EFF2BFE916
:10034000B7040020014493840400314A83C78182AA
:100350006363F4005DBDB307440383A6C182A6971F
:100360009847D04332976375D70094C79C438297D0
:1003700005041374F40FD9BFEFF29FE70945E92E86
:10038000B122EF208032716513050520EF20E037A0
:10039000A937B707002083A5870C37750000130520
:1003A000C55CEF50303E9305F0051305803EEF200D
:1003B000202A05472384E182EF10D071EF10B05E50
:1003C000AA85377500001305C55DEF50B03BBD37FA
:1003D000FDBFB71702409843B706FFF041111367FE
:1003E000170098C3D84337060200758FD8C39843C7
:1003F000B706F7FEFD16758F98C39843B706FCFF46
:10040000FD16758F98C3D843B70601FFFD16758F8B
:10041000D8C39843B70600ECFD16758F98C337070D
:10042000FF0098C723A6070202C402C69843C1660C
:10043000558F98C3B716024005679C42F18F3EC6A0
:10044000A24785073EC4B24781E7A247E397E7FE8C
:10045000B71702409C431397E70063570706854789
:100460003EC632478547631FF704B7170240D8439B
:10047000B706C1FFFD16D8C3D843D8C3D843136706
:100480000740D8C3D843758FD8C3D843B7062900CF
:10049000558FD8C39843B7060001558F98C398432A
:1004A00093166700E3DD06FED843B7160240719B42
:1004B000D8C3D84313672700D8C32147DC42B18B88
:1004C000E39EE7FE4101828002C661BFB71602408B
:1004D000D842B70700201146318B9387870C6305FC
:1004E000C70021466308C70237177A0013070720A1
:1004F00098C337170240584311839376F7003707A4
:1005000000201307C7003697142398433357D700AA
:1005100098C38280D842D442416649833D8BF18E94
:100520001306270015CF3D47630FE6024147630FCF
:10053000E602454781456313E6004146A1E237479D
:10054000024003270780418B0DC737177A00130736
:1005500007203306C70290C3C9DD9843058349BF0E
:1005600081454946E1BF85453546C9BF81453D4680
:10057000F1B737173D0013070790E1BF3715024069
:1005800058559316F700585563DF060411833D8BC9
:100590009306170037177A00130707203357D7023F
:1005A00098C35455A182BD8A8DE295463307D70280
:1005B000058398C337170240585794433D8B05076E
:1005C00033D7E60298C3984369B705456394A600FC
:1005D000E546E9BF3D456396A600D1463387E6026E
:1005E000C9BF8906E5BF3D8B9306170037177A0010
:1005F000130707203357D702F1B701A09701002056
:100600009381C12C178100201301C19F1785000021
:100610001305852C970500209385C59E138681823E
:1006200063FAC5008322050023A05500110591053A
:10063000E3EAC5FE13858182938581866377B500E1
:10064000232005001105E36DB5FEFD42739002BC49
:10065000AD4273904280B76200009382820873902B
:100660000230970200009382229A93E23200739044
:100670005230EFF01FD697020000938222D0739081
:100680001234730020309C4513F7070113F8F7006C
:1006900001C7D8413368E8008E2113F7F50F39C33D
:1006A00018418146854E3D4F930F8002930280048E
:1006B000214E3396DE00B3F8C500631116039398FC
:1006C000260033131F011343F3FF3377E300B318FE
:1006D000180133E7E800639FF70550C98506E39AE0
:1006E000C6FD18C11307F00F6375B70454412146C6
:1006F000854E3D4F930F800293028004414EB39884
:10070000CE0033F715016392E80213172600011794
:100710003313EF001343F3FFB376D3003317E8002E
:10072000D98E639DF701232A15010506E319C6FD3D
:1007300054C18280E39457FA10C94DB7E39757FE2E
:1007400023281501DDB708456D8D3335A000828063
:100750000CC982804CC9828023A8A182828003A711
:100760000183894710216311F70214318D4763ED2E
:10077000D7003C219A0637E700E09607D58F93F71C
:10078000F70F32972300F74054410547935756001F
:100790003317C70089CA938707048A07B7E600E0C2
:1007A000B69798C3828093870706B7E600E08A076A
:1007B000B69798C30F1000008280371702405C4341
:1007C0009146B18B6385D700A1466382D706B717E0
:1007D0007A00938707201CC1371602405C42370716
:1007E00000201307C7019183BD8BBA9794231C4146
:1007F000B3D7D7005CC15442A1829D8ABA96942295
:10080000B3D6D70014C55442AD829D8A36971823BB
:10081000B3D7E7005CC55842398393763700138716
:10082000418036971823B3D7E7021CC982805C4306
:100830005843C166C983758FB7F6FF1F83A6C6707C
:10084000BD8B89071396160163480600C54601460D
:100850006392D702C94739A88946638FD702BD463C
:10086000638ED702C146638ED702C54601466393A5
:10087000D700C1471DEF3747024003270780418B50
:1008800005C737177A0013070720B307F7021CC103
:1008900021D61C41858381B701466DBF0546B5470A
:1008A000D1BF0146BD47F9B737173D001307079081
:1008B000E9BFB7150240D8559316F700D85563DF46
:1008C000060411833D8B9306170037177A00130730
:1008D00007203357D70218C1D455A182BD8A8DE2B3
:1008E00095463307D702058318C13717024058577A
:1008F00014413D8B050733D7E60218C1184171B783
:1009000085456394B600E546E9BFBD456396B600EC
:10091000D1463387E602C9BF8906E5BF3D8B930602
:10092000170037177A00130707203357D702F1B79C
:1009300099C5371702401C4F5D8D08CF8280B717CD
:100940000240984F1345F5FF798D88CF828099C575
:10095000371702405C4F5D8D48CF8280B717024049
:10096000D84F1345F5FF798DC8CF82801E213737C8
:100970000140930607C0C207C1836300D504B706D0
:100980000040630CD502938606406308D502B71673
:100990000040138606806302C502938606C0630E7C
:1009A000D50013070740630AE50037570140930657
:1009B00007C06304D5006316E500BA2193F7F7F882
:1009C000D98F37170040630CE50013070740630811
:1009D000E50093F7F7CFFA21C207C183D98F1EA193
:1009E000DE215EB59E211EB5B7370140138707C0D3
:1009F000630EE50093870740630AF500B75701408F
:100A0000138707C06304E5006314F5009C251EB935
:100A100085475EA982801E2189C593E717001EA124
:100A20008280C207C183F99BC207C183CDBF5E2507
:100A300001C6DD8D4EA5828093C5F5FFFD8DDDBF1E
:100A40001E294A25ED8F4205418189C76D8D3335B9
:100A5000A00082800145828093C5F5FFC205C18157
:100A60000EA98280EFF2CFF81629F577FD17F58FE2
:100A7000F621DA257971D58F1EA95625FD77938742
:100A8000379FF58FD6212A842EC6D58F9625D58FF0
:100A9000B625D58F5EA55E29C207C18393F7F7CF30
:100AA000D98F5EA96808113BB7470140938707803B
:100AB000B245631EF402A2576547B387E702984127
:100AC000930640060A07B3D7E70233D7D702B3F736
:100AD000D7021207920793872703B3D7D702BD8B9C
:100AE000D98FC207C1831EA445616FF0AFF2925740
:100AF000E1B791C55E250967D98F5EA582805A2529
:100B0000F977FD17F98FD5BF93F5F51F4EA18280B8
:100B10000A216D8D3335A0008280EFF26FED37151D
:100B20000140930500021305058031393335A000DB
:100B30006FF04FEE930780043305F50241110D81EC
:100B40002AC60100B2471387F7FF3AC6FDFB4101F1
:100B50008280EFF2EFE92A84C14501CD37150140CB
:100B600013050580F536154523A48180E1376FF024
:100B70006FEA3715014013050580E93EEDB7EFF246
:100B80002FE72A849305000201CD37150140130594
:100B900005807D3E154523A68180693F6FF08FE774
:100BA00037150140130505807536EDB7EFF24FE4B8
:100BB0000545F1379384C1800549054523A02401EB
:100BC000493F138481800145232024014D3F014585
:100BD00023A00400BD3F232004006FF0AFE3EFF239
:100BE0002FE10145693F1384C1800545232004009E
:100BF0008D378544054523A49180513704C06FF09B
:100C00006FE1EFF24FDDAA8A0144130B000821497E
:100C1000B3548B40B3F4540126859537054523A67C
:100C20009180053F93848180854701459CC00504E0
:100C30000D3723A00400E31D24FD6FF00FDDEFF25C
:100C40008FD905452D3F054723A6E1808144014406
:100C5000130B0008214A0545ED3D854923A4318148
:100C60006D3D938A818063173501B3579B405D8C3E
:100C70001374F40F0145F13D850423A00A00E39CA1
:100C800044FD22856FF06FD8EFF28FD62A84C53DE0
:100C9000054523A68180753D1384818085470145E4
:100CA0001CC0453D232004006FF0CFD6EFF24FD497
:100CB0000545F1358544054523A69180138481803F
:100CC000493D04C0993DAA8401456135268523200C
:100CD00004006FF02FD4EFF2AFD137040020930758
:100CE000C40283C7470241111304C4029DC311C14A
:100CF000094518405C40C8870C3B88239306F100E7
:100D00000546EF10E0360DC9FD573E8541016FF0F5
:100D10006FD03C24F5DB0DC5183881477DF785473A
:100D2000DC875C4018409306F10088230C3B0546A5
:100D3000EF100034FD5771F99C871CB88147F1B75B
:100D4000A3070100F9BFEFF2AFCA370400209307F1
:100D5000C402BC27411189E77D5541016FF08FCB5B
:100D60001304C40218405C40A30701000C3B882315
:100D70009306F1000546EF10A02F79FD18405C4066
:100D80009306F1004C3388230546EF10602E69F579
:100D900018405C409306F1004C2388230546EF1071
:100DA000202D5DF95C4088231C40CC2383474402FE
:100DB000ADCFB1479306F1000546DC87EF10402B1D
:100DC00041FD13052003EF10F010930700FCDC87B2
:100DD0003C24858B99C38157DC8718405C4093067F
:100DE000F1004C2388230546EF10802835F51C3888
:100DF00091C38947DC8718405C409306F1000C3BA7
:100E000088230546EF10C02621F918405C40A3074F
:100E100001009306F1004C3388230546EF1040256E
:100E20003335A0003305A0400DBF91479306F10074
:100E30000546DC87EF10C023E31005F23C281307BA
:100E4000000491E73C24858B99C313070006D887DB
:100E50005C4018409306F10088234C230546EF10B0
:100E60002021E31B05EE13052003EF10B0061C380C
:100E700018409306F100B337F000DC875C400C3B70
:100E800005468823EF10C01EE31805EC18405C40AF
:100E90009306040149B7EFF2AFB53704002093077A
:100EA000C402BC27411189E77D5541016FF08FB61F
:100EB0009307401F1304C4026308F50463ECA70200
:100EC0009307A00FE312F5FEA30701009C871824E7
:100ED00001458D83E30BF7FC18405C409306F1005D
:100EE0006C2388230546EF10A0185DFD9C878D8339
:100EF0001CA465BF9307803E630BF5009307007D3C
:100F0000E314F5FAE14711A0A147DC87C1B7C14757
:100F1000EDBF370700209306C70294360546AA871F
:100F20001307C7026384C60289CA09466382C602E0
:100F30000D466381C6027D558280894694A3383B65
:100F4000014501C79823060798A382809146FDB703
:100F5000A146EDB7C146DDB7EFF28FA937040020F7
:100F60009307C402BC27411189E77D5541016FF009
:100F70006FAA91471304C4026305F50463EBA7024B
:100F80008947E314F5FEA30701009C871834014547
:100F90008D83E30DF7FC18405C409306F1006C3341
:100FA00088230546EF10C00C69F19C878D831CB423
:100FB00075BFA147630AF500C147E318F5FAE14799
:100FC00011A0A147DC87D1B7C147EDBFEFF24FA217
:100FD000370400209307C402BC27411189E77D55DF
:100FE00041016FF02FA39307B00B1304C40263F603
:100FF000A7028547DC8738349C870145E302F7FE6A
:1010000018405C409306F1002C2388230546EF101E
:10101000200671F59C873CB4E1B79307100663F492
:10102000A7008947C1BF9307900263F4A7008D47CB
:10103000D1B7CD4763F4A70091476DBFA54763F4CF
:10104000A700954745BF994775B7EFF2CF9837048A
:1010500000201304C4028347440201498DEF3C245D
:101060007D5995CB9374E50FE58F834904011CA846
:10107000858FB337F0003309F0405C28C58F91CBE2
:101080000545913989C8C13119C5230834017D59F5
:1010900019A0014589314A856FF02F97EFF2AF9380
:1010A000B70900209384C90283C74402411189E72C
:1010B0007D5541016FF06F95BC24FDDB9840DC400D
:1010C000AE8A2A894C278823328A74000946EF1099
:1010D000C00079FD1C868086A2075D8C63752401A3
:1010E00023000A00F1B7D8409389C9023E238583C3
:1010F00063F087029C4008237400AC3B0546EF0078
:10110000D07D5DF51C86C18B81C73539795555B7C2
:1011100003A7090083A74900D6864C378823137696
:10112000F90FEF00907B49F5335424037D1423001D
:101130008A0041B7EFF2CF8B370400209307C40237
:10114000BC2B41116382A70C1304C4025C40AA8427
:101150009306F10088231C400546CC23A9C8EF0064
:10116000D07709C57D5541016FF0CF8A9C87184023
:101170009306F10093F7F7FDDC875C404C230546AE
:101180008823EF00F06E79FD0D45EF10A0548947DC
:10119000DC878347240281C7930720F8DC878347D5
:1011A0003402A1CB9C8793E70703DC8799A0EF006B
:1011B000D0724DF93C249487858B13F7F60D99C3B3
:1011C00013E70602D8875C4018409306F100882395
:1011D0004C230546EF00D06951F50D45EF10804FC7
:1011E0008347240299C39307000803473402DC872E
:1011F0005DFB18405C409306F1006C3B882305467C
:10120000EF00106725F124A80145B1BFEFE25FFEB2
:10121000370400209307C40283C737024111638358
:10122000A7041304C402814719C193070003382897
:10123000DC8701C793E72700DC878347240289C73F
:101240009C8793E707F8DC875C401840AA848823D2
:101250006C3B9306F1000546EF009061FD5701E5F8
:10126000A301940281473E8541016FE0BFFA9307D5
:10127000800263F5A700FD573E858280EFE25FF7AD
:10128000370400204111AA841304C40215E5BD3FB0
:10129000930700707C8618405C4074004C3B8823A8
:1012A0000946EF00F05CFD5701E5230A0400814781
:1012B0003E8541016FE01FF60545893F9307000217
:1012C0005C868547639DF402A30601001545FD3940
:1012D0009C86184074009A0793E77700DC865C4090
:1012E0004C3B09468823EF00B058FD5771F1A147E8
:1012F0003CA48547230604005CA8813B4DBF1547ED
:1013000063649700DC86D9B7D14763E697008947C5
:10131000DC8629456DBF8D47DC8651454DBFEFE228
:101320003FED370400209307C402B827411109E7B5
:101330007D5541016FE01FEE03C7470275FBDC2BB3
:101340001304C402AA8485C39307F5FFC207C183AF
:10135000130770026367F7001375F50F093F014526
:10136000C9BF014529371307803EA68763749700DC
:101370009307803E93960701C182114763F3E6000D
:101380009147C207C1839304803EB3C7F40218405B
:101390009306F10005460C33FD17DC875C4088237B
:1013A000EF00104D51F58887050533C5A4026AA4E6
:1013B000058129396DB7EFE2BFE393770507411146
:1013C000AA8481C78547DC8721A00DC9A307010036
:1013D000370400209307C4029843DC439306F100CE
:1013E0004C3B882305461304C402EF00704811C922
:1013F000230504007D5541016FE0DFE19307000400
:10140000D9B79C8793F7F7FB5CA493F70404B9CF93
:10141000A307010093F7040289E79C8793E727005D
:10142000DC8793F7040189E79C8793E71700DC8743
:1014300093F7840089E79C8793E78703DC8718404C
:101440005C409306F1006C2B88230546EF00504268
:1014500045F193F7740F91C3553B1305200324A462
:10146000230A0400EF100027014571B79147DC877C
:1014700055B7EFE2FFD7370400204111930700F87A
:101480001309C4025C840327090083274900AA8446
:101490004C3B882334000546EF00903D11C57D5438
:1014A000228541016FE01FD713054006EF1080220F
:1014B0001304C40218405C40230401004C3B882301
:1014C00034000546EF00D03A79F918405C4034000A
:1014D0000C3F88231946EF00504071F19C86988597
:1014E0008A070607098B918BD98F9884058BD98F32
:1014F000C9C3054793F5F70F6394E7003CB831A0E3
:1015000089476391F506A3090400FD577EA41CA832
:101510003CA8FD571CC4231A040085473146814569
:10152000130564015CA4EFE0BFCF85473EB02322E2
:1015300004021305007DEFF01F9635F10945EFF029
:10154000BFA131FD1305A002EFF05FA829F9130533
:101550002003F13329F5D53C2A8431F1A1EC014572
:10156000993D3DBF377500001305055FEF409021A1
:101570003DB7032709008327490034002C33882313
:101580000546EF009035E31C05F01C84BD8B81EB14
:101590003775000013058561EF40103009B711471A
:1015A000E393E7F63775000013054566EF40D02E4C
:1015B0008547A9B7413645D5DDB519E67D55828009
:1015C0007D5541016FE01FC5EFE29FC23704002047
:1015D0001304C4023C244111E5D713578500931727
:1015E0008500D98F7C865C401375F50F2E95BA2740
:1015F000E348A7FC1840AE8488232C3F328974004E
:101600000946EF00F0264DFD18405C40CA860C2FBD
:10161000882313F6F40FEF00B0253335A00033050F
:10162000A04045B719E67D5582807D5541016FE0A8
:101630007FBEEFE2FFBB370400201304C4023C244A
:101640004111E5D71357850093178500D98F7C8604
:101650005C401375F50F2E95BA27E348A7FC184098
:10166000AE8488232C3F328974000946EF00502055
:101670004DFD18405C40CA860C2F882313F6F40FEA
:10168000EF00B0253335A0003305A04045B7EFE2A9
:10169000BFB3B70400209387C40283C75702011168
:1016A00089C77D5505616FE0BFB5E5DDC16B9384EA
:1016B000C402368B32892E8AAA890144C14CFD1B93
:1016C0006369340313168900984013598900DC407C
:1016D00033692601231621014C3F882374000946F3
:1016E000EF0010195DFD8547A382F4022393640384
:1016F00055BFB38A894063D35C01C14A139C0A0178
:10170000135C0C01330D8A006A86E28522857535EB
:1017100049F91008E2852285313741F533F67A011F
:101720000C086A85EF40A07809E562944204418084
:1017300041BF795585BFEFE2BFAB370400201304EA
:10174000C4020347440241116302A70421C5834731
:1017500054027D558DCF0145EFF0EFD70145EFF0F5
:101760007F9D6A306D3E5C40A30701009306F10047
:101770008823054693053002EF00900F8547054505
:101780002302F402EFF02FD5EFF0EFDB014541012A
:101790006FE05FA8EFF02FD41C289306F1000546F8
:1017A000DC875C40930530028823EF00700C230235
:1017B0000402D9BFEFE2DFA3B7B7B38D411193871E
:1017C00087AB3EC2B7A70D359387478B3EC4500009
:1017D0009307D005A5451305804B5C86F93B410175
:1017E0006FE05FA3EFE2DFA09D6505659306800CC7
:1017F000130600409385C56C130565BF493D6FE036
:101800007FA1EFE2FF9EF57741111387C7D493873D
:10181000C7907C869307C00278845C871307C00654
:10182000937635001C085885BE9683C786FF1357EC
:1018300035000D8B5C801C083E97834787FF10089E
:1018400083C6C6FFDC80935765008D8BB29703C6B5
:1018500087FF0347C7FF83C7C7FF2A8450818D4591
:101860000A86130560425482D8825C83B93309C565
:101870007D5541016FE01F9A50008D451305A04230
:101880002D3B7DF59567938767637C8093076007A1
:101890005C819167938767627C82930760065C83B3
:1018A0009377440099C7930770035C809307700295
:1018B0005C829377040299C793077005DC809307D5
:1018C0007004DC829377041099C7930770075C81DA
:1018D000930770065C830A868D4513050044F13931
:1018E00041F950008D4513051043C13951F1239E34
:1018F000818441B7EFE2DF8F01119D652A84314673
:101900009385C5594808EF40C05C9307800C63F687
:1019100087007D5505616FE0FF8FB3C787027000B8
:1019200089451305602123060100FD17DC8671310E
:101930006DF105655008B145130515ACBD3971F958
:1019400023908186C1BF9377750099E37D5582808E
:1019500093070064E3ECB7FEEFE29F8941112A840C
:101960002E85EF40201FB787000083A5472CEF305E
:10197000A079AA841305B100EFF0AFD99C85114777
:101980006383E70E6369F7000947638EE7027D55BD
:1019900041016FE03F8821476389E70E4147E398A3
:1019A000E7FEB787000083A5072E2685EF30F020DD
:1019B000EF40800813190501B7870000135909018A
:1019C00083A5472E15A0B787000083A5872C268501
:1019D000EF30B01EEF404006B787000083A5C72C4C
:1019E00013190501135909012685EF30101DEF4029
:1019F000A00442059317890041811359890033E9F6
:101A000027019317850021815D8D231621016887A9
:101A100093771400C9EF9377240085C3700089453C
:101A20001305801DEFF07FB93DF11306E1008945F4
:101A300013058012EFF07FB839F91188014529D8D4
:101A4000700089451305C01DEFF03FB729F113065B
:101A5000E10089451305C012EFF03FB63335A00011
:101A60003305A04035B7B787000083A5072D26852D
:101A7000EF30B014EF30507C13190501B787000028
:101A80001359090183A5472D85B7B787000083A5A2
:101A9000872D2685EF307012EF30107A131905016B
:101AA000B78700001359090183A5C72D35BF700002
:101AB00089451305401DEFF05FB0E31A05EC1306EE
:101AC000E100894513054012EFF03FAF29D5C1B5BC
:101AD000EFE20FF293771500411195EBA307010098
:101AE0009377250089C79C8793E7C700DC87118916
:101AF00009C59C8793E73700DC871306F10085450D
:101B000013058014EFF07FAB41016FE0AFF0930756
:101B10000003DC87F1B7EFE2AFED4111854719C54E
:101B200011479377F50F6373A7009147FD171306CD
:101B3000F10085451305F014DC87EFF01FA8410183
:101B40006FE04FEDEFE2CFEA95473355F5024111D3
:101B5000700089459317850021815D8D6886130586
:101B6000E01DEFF09FA541016FE0CFEAEFE24FE803
:101B700095473355F502411170008945931785004B
:101B800021815D8D68861305A01DEFF01FA3410123
:101B90006FE04FE8EFE2CFE59307803E3345F50273
:101BA00041117000B305B5021305C01593D78541E7
:101BB0005C8693D70541DC8693978500C205C18179
:101BC000A181DD8D6C879145EFF03F9F41016FE072
:101BD0006FE4EFE2EFE195473355F50241117000F4
:101BE00089459317850021815D8D68861305A015B1
:101BF000EFF0BF9C41016FE0EFE1EFE26FDF95474F
:101C00003355F502411170008945931785002181F4
:101C10005D8D688613058015EFF03F9A41016FE0F6
:101C20006FDF19E57D5582807D5541016FE08FDEC4
:101C3000EFE20FDC41112A84700091451305003654
:101C4000EFF05F9E75F11C869886E2074207D98FF8
:101C50009887D98F18872207D98F1CC0F9B7EFE270
:101C60002FD9411111C5EFF0FFB441016FE08FDAB8
:101C70009D6525469385855A4800EF408025500094
:101C8000A5451305804BEFF05F93C5B7EFE24FD644
:101C9000411115C1B7C7C4C69387072C05657000ED
:101CA0009145130585A93EC6EFF03F91EFF0AF894E
:101CB00041016FE02FD6B7978B8B9387B7B8F9BFE9
:101CC000EFE20FD3411115C1B73730389387078240
:101CD0000565700091451305E5A93EC6EFF0FF8D3F
:101CE000EFF06F8641016FE0EFD2B7A7A3A3938710
:101CF000373AF9BFEFE22FCE4111B7D7E309938707
:101D000027A02A8450009145130580063EC2EFF0BB
:101D1000DF8A930730FA5C82137A0404630B0A1497
:101D2000930700FCDC82F1779387872C7C831379FF
:101D3000041863050914F577938747CC7C849307CF
:101D400060FC5C85930730FADC850565E97793874D
:101D5000373A5000A945130575AA7C86937934005B
:101D6000EFF0BF859307800D63840900930700029D
:101D7000056550008545130565AB5C82EFF0FF8378
:101D80009377040263830710EFF0DFA26302090276
:101D900093770410638E070EB797B69B938727BB84
:101DA000056550009145130525AA3EC2EFF0FF805E
:101DB000937714006383070E0565E157500085454E
:101DC0001305058B5C82EFF04FFF9305A00F1D45B7
:101DD000EFF07FB71D45ED390545353B130540064E
:101DE00095331305401F593337E5CA029305800C1C
:101DF00013059530453313058002E13B2945F53B3A
:101E000093772400B337F0009387870D5000854502
:101E10001305D0735C82EFF04FFA937744000545C9
:101E200091E30145A53593770401054591E301450B
:101E3000413D9387418513678400BAA7EFE0BFF067
:101E40009387418563160A06238707006305090007
:101E5000F8271907F8A7518801C4F8274107F8A700
:101E600063850900F8271107F8A7014541016FE0D4
:101E7000CFB9DC82E9779387373A4DBDE97793870D
:101E8000373A7C84930730FA6DBD0145C93BFDBDEF
:101E9000B787B4909387070B21B70565930780FD3B
:101EA000500085451305058B5C82EFF00FF189BF6B
:101EB0001947F8A761BFEFE22FB1938B4185AA8440
:101EC00003C5EB0001112E89328B231007003E86DB
:101ED0008A853684BA89EFF06F9C45E503D7AB005D
:101EE000AA8A138A418593774701638107181C806A
:101EF00094809082E207C206D58F948142060C84BA
:101F0000D58F1481E2058886A206D58F14822320FE
:101F1000FB00C187E206D18E9083B387F7024205AA
:101F2000D18E10832206D18E90842322DB00C186BD
:101F30004206D18D9085B386D602D18D10852206BA
:101F4000D18D10862324BB00C1856206498E888707
:101F5000BE96B387B502498E08872205498E23268F
:101F6000CB0041863306C602B697B70600F1B2979A
:101F7000B697B706000263F8F600EFE0DFDC2390C7
:101F80000900FD5AC5A083D7090093E707102390E5
:101F9000F900C14793760704A1C61410BE9603C684
:101FA00006FE83C516FE990722064D8E2310C90032
:101FB00003C626FE83C536FE93F7F70F22064D8E25
:101FC0002311C90003C646FE83C656FE2206D18EE3
:101FD0002312D90083D6090093E686002390D90006
:101FE00093760718A9C21410BE9603C606FE83C5D1
:101FF00016FE990722064D8E92A003C626FE83C5C3
:1020000036FE93F7F70F22064D8EB2A003C646FEAA
:1020100083C656FE2206D18ED6A083D6090093E64B
:1020200006072390D9000D8B1DCBB304F1009C3023
:1020300003C93400858B99CB83270A0081CB937524
:1020400079001355390085051D8982979C30A18B35
:1020500099C783274A0081C713556900829783A7D0
:10206000C1821CC0568505616FE08F9981471DB7FD
:10207000EFE20F9841112EC4B28436842AC6EFE0F5
:10208000FFB2324506051375E50FEFE09FB7EFE0AD
:10209000FFC1A24519C5EFE09FB47D5541016FE036
:1020A0006F972E85EFE0FFB5EFE05FC001E9A294E6
:1020B000631A9400EFE0BFB20145CDB7EFE03FB245
:1020C0007955E9BF08200504EFE0BFB3EFE01FBE7C
:1020D00065D1EFE0DFB07555D1B7EFE2CF8F411199
:1020E0002A842EC6B28436890604EFE03FAC13750D
:1020F000E40FEFE01FB1EFE07FBBB24519C5EFE0A1
:102100001FAE7D5541016FE04F902E85EFE07FAF10
:10211000EFE0DFB909C5EFE09FAC7955E5B7EFE037
:10212000FFA8136514001375F50FEFE09FADEFE006
:10213000FFB771F501449389F4FF63169400EFE053
:102140001FAA0145C1B7EFE09FAFB307890088A37D
:102150003385894013351500EFE01FB30504F1BF47
:10216000EFE20F892A84EFE07FA41305000DEFE072
:102170005FA9EFE0BFB32285EFE0BFA8EFE01FB398
:10218000EFE0DFA21305100DEFE0BFA7EFE01FB2F5
:10219000EFE0FFAA2A840545EFE01FAFEFE03FA480
:1021A00022856FE02F87EFE2AF84130550074D3F84
:1021B0006FE04F86EFE2CF8313840184138501849F
:1021C000EFF03FA60C40378500001305C52EEF3019
:1021D000705B0840EF30101883A50181EF30E01DDF
:1021E00023AAA182B787000083A5872EEF30E01CC9
:1021F000EF30607EAA85378500001305852FEF300C
:1022000070586FE02F81EFD23FFC41116537B787DF
:10221000000083A487300144B78A0000268BA68B78
:102220000504A2851385CA30EF30D0559385C1834C
:102230001386418413858183912C138D4184938C63
:10224000C183138C8183AA8539E503250D00A685FA
:10225000EF30A016EF3020782AC603A50C00DA85EF
:10226000EF30A015EF3020772AC403250C00DE855F
:10227000EF30A014EF302076B2462246AA8537858B
:10228000000013054532EF30F04FA947E31AF4F888
:1022900041016FD0FFF63785000013054535EF305B
:1022A000704EE5B70307050081476343E00291479D
:1022B00005E3030715008547634CE000954709EBEC
:1022C0000307250089476345E00093371700990706
:1022D0003E858280EFD2DFF101112800EFF06F9987
:1022E00005C5B78500002A86938505386800EF305C
:1022F000705B378500006C0013050539EF3090489E
:102300007D5505616FD01FF113058007EFF0AF8A8F
:102310002A860DC1B7850000938545396800EF30E6
:102320007058378500006C0013050539EF30904573
:102330007955C1BF13058007EFE03FD12A860DC153
:10234000B78500009385C53A6800EF30B0553785F2
:1023500000006C0013050539EF30D042755555B7B4
:1023600013054006EFE0BFFB2A860DC1B7850000CC
:102370009385853C6800EF30F052378500006C0093
:1023800013050539EF3010407155A5BFEFF08FC52B
:102390002A860DC1B78500009385453E6800EF3061
:1023A0007050378500006C0013050539EF30903D03
:1023B0006D5581BF370500209304850513058505FC
:1023C000D5352A8913853400F13D2A8413856400AC
:1023D000D13D1A050E04498C336524014205418123
:1023E000EFF02FC22A860DC1B78500009385C54046
:1023F0006800EF30304B378500006C00130505395D
:10240000EF3050386955F5BD1305B017EFF09F8ECA
:102410002A860DC1B7850000938585426800EF309C
:102420007048378500006C0013050539EF30903592
:102430006555C1BD13054006EFF0CFCB2A860DC10F
:10244000B7850000938545446800EF30B045378577
:1024500000006C0013050539EF30D032615555B5D9
:102460000545EFF04FADE30E05E8B78500002A867D
:102470009385C5456800EF30F042378500006C0059
:1024800013050539EF3010305955A5BDEFD2DFD314
:1024900039712A8CAE8B328B930791011307A101FE
:1024A000740810182C100810EFF0FFA07D5A631D5F
:1024B0000518BC852A8A93F70710638707184255C9
:1024C000B7890000EF30A05C83A5C936EF20F06E1D
:1024D0002A895255EF30A05B83A5C936EF20F06DF5
:1024E000AA846255EF30A05A83A5C936EF20F06C5C
:1024F0002A847255EF30A05983A5C936EF20F06BBE
:10250000B787000083A50737AA892685EF20F06AE0
:102510002A8DCA854A85EF209008AA8CCE856A85C7
:10252000EF20B069AA8AA2856685EF201069AA8586
:102530005685EF20D006EF30C06E7924B78A0000B0
:1025400003A68A3783A6CA37EF105042EF302078AF
:102550002320AC00A2852285EF2070042A8CA6855A
:102560006A85EF2090652A8DA2856285EF20F06450
:10257000AA856A85EF30A00DB787000083A547378D
:10258000EF20F001EF30E0692AC42EC66285CE85C7
:10259000EF20B0622A8CA6856685EF201062AA859E
:1025A0006285EF20C07FEF30C0672246B246E12C43
:1025B00003A68A3783A6CA37EF10503BEF3020714D
:1025C00023A0AB00CA854A85EF20305FAA8BA68581
:1025D0002685EF20905EAA855E85EF20407CAA8B41
:1025E000A2852285EF20705DAA855E85EF302006EA
:1025F000AA8BCE854E85EF20505CAA855E85EF3094
:102600000005EF3000622AC42EC64A85CE85EF2031
:10261000D05A2A89A2852685EF20305AAA854A8574
:10262000EF20E077AA85EF208077EF30805F2246A9
:10263000B246912C03A68A3783A6CA37EF1010330F
:10264000EF30E0682320AB00528521616FD05FBB83
:10265000EFD21FBA0111AA842E8409458545EFE007
:102660000FAFE082370400404C0813050440E484B7
:10267000231D0100231B0100EFE04FAF054693052A
:10268000100413050440EFE08FBA9307D0025C8674
:10269000680085473EC8EFE08F8C854513050440F0
:1026A000EFE06FB705616FD0FFB6B707002083A7D3
:1026B000870C37177A0013070720B3D7E70293F781
:1026C000F70F2385F1841307803EB387E702239435
:1026D000F1848280B7F700E0D8438146799BD8C364
:1026E00003D781843306A70290CBD4CB98431367DA
:1026F000070198C398431367170298C3D843058B03
:1027000075DF9843799B98C38280EFD27FAE2A848D
:102710001165011185451105EFE08FA19307002098
:102720007C82371501408D473EC44C00E1471305BC
:1027300005803EC6EFD03FF522C837440140B707B9
:1027400008000C08130504803ECC02CA231E0100B9
:10275000EFE04FB1854513050480EFE08FB90561C7
:102760006FD05FABEFD23FA7B7440140AE8932894B
:10277000014493840480634524014A856FD0FFA8F7
:10278000930500042685EFE0AFB87DD9B3878900B3
:102790008385070026850504C205C181EFE0CFB619
:1027A000D9BF138741811C43938681863E95636B15
:1027B000D500B78600209386068063E5A60008C38F
:1027C0003E858280FD57EDBF5D71A2C4A6C2CAC01E
:1027D0004EDE52DC86C6138A81812A84AE846D2047
:1027E00003270A00FD572A89AE896307F70222866C
:1027F000A6862285A685EF20C05619ED2285A685DE
:10280000EF00303C97670000938747C79043D4435D
:10281000EF10F00A634CA000B64026444A85CE85EE
:1028200096440649F259625A6161828085473EC4E6
:1028300017650000130505C197670000938787C4DB
:102840003EC602D422CC26CE22C826CAEF001038BB
:1028500003270A002AD02ED28947630BF7002800ED
:10286000EF00903611C5A25791EB025992596DB7FE
:10287000EF306063930710021CC1F5B7EF30A06220
:10288000A2571CC1DDB7A5A139714AD8139915000B
:1028900022DC26DA06DE4ED652D456D25AD05ECE8E
:1028A00062CC66CA6AC86EC613591900B707F03FF2
:1028B0002E84AA84634DF9063309F9403369A900CF
:1028C000630B09022A86AE86EF10D0552A86AE86A3
:1028D000EF10A023AA84F250625426854259D254A4
:1028E000B259225A925A025BF24B624CD24C424D80
:1028F000B24D2161828097670000938727B990438A
:10290000D443EF10B006976700009387A7B89043B1
:10291000D4432A89AE892685A285EF1030052A8600
:10292000AE864A85CE85EF00502BAA846DB7B707D7
:10293000E03FAE89176B0000130B4BB4635AF902EA
:10294000B707403E6353F92897670000938707B5A0
:102950009043D443176B0000130B4BB2EF00F027EA
:1029600003260B0083264B00EF106075634DA024F7
:102970002685A285EF00F0242A86AE8603250B006B
:1029800083254B00EF10104A97670000938787B6A6
:102990009043D443EF10807D97670000938787B002
:1029A0009043D4432A84AE84EF10407C97670000A4
:1029B0009387C7AF9043D443EF0030222286A68688
:1029C000EF10C07A976700009387C7AE9043D44357
:1029D000EF1050452286A686EF10407997670000D9
:1029E0009387C7AD9043D443EF00301F2286A6865D
:1029F000EF10C077976700009387C7AC9043D4432C
:102A0000EF1050422286A686EF10407697670000AE
:102A10009387C7AB9043D443EF00301C2286A68631
:102A2000EF10C074976700009387C7AAD443904300
:102A30002A8AAE8A2285A685EF1040739767000028
:102A40009387C7A99043D443EF10D03D2286A68632
:102A5000EF10C071976700009387C7A89043D443D5
:102A6000EF00B0172286A686EF104070976700002F
:102A70009387C7A79043D443EF10D03A2286A68607
:102A8000EF10C06E03260B0083264B00EF00F014FE
:102A90002A8BAE8B2285A6850D29B737EF3F93870A
:102AA0002733AA8C2E8C63DD27055A86DE86528555
:102AB000D685EF1080056686E286EF10206B66866D
:102AC000E286EF0090112A86AE86EF00101197671C
:102AD00000009387279C9043D443EF10B03497674E
:102AE00000009387A79A2A86AE868843CC43EF10CE
:102AF0007033AA84E34130DFB7070080BD8DE1BBAE
:102B00002A86AE86EF00700D5A86DE862A8DAE8D3F
:102B10005285D685EF00707F2A86AE866A85EE855F
:102B2000EF10C064014A2A8BAE8B5286E286528532
:102B3000E285EF10A0632A86AE862285A685EF1077
:102B4000702E2A84AE845286E2866685E285EF0086
:102B5000D0082A86AE862285A685EF00107B2A86BD
:102B6000AE86EF009007976700009387A7922A86AA
:102B7000AE868843CC431764000013042498EF10FA
:102B8000702A2A86AE865A85DE85EF10B0292A8BF8
:102B9000AE8B5286E2865285E285EF0010042A86CB
:102BA000AE8608404C40EF10F0272A86AE865A8544
:102BB000DE85EF1030272A86AE8608404C40EF10A5
:102BC0007026AA8405BFA28539B32A86AE86EF1087
:102BD000E059976700009387E78C9043D4432A8994
:102BE000AE89EF10A058976700009387278C904319
:102BF000D443EF00807E4A86CE86EF102057976739
:102C000000009387278B9043D443EF10B0214A866E
:102C1000CE86EF10A055976700009387278A9043D0
:102C2000D443EF00807B4A86CE86EF10205497670E
:102C30000000938727899043D443EF10B01E4A8643
:102C4000CE86EF10A05297670000938727889043A5
:102C5000D443EF0080784A86CE86EF1020519767E4
:102C60000000938727879043D4432A8AAE8A4A85F7
:102C7000CE85EF10A04F976700009387278690437B
:102C8000D443EF10301A4A86CE86EF10204E976755
:102C90000000938727859043D443EF0000744A8651
:102CA000CE86EF10A04C976700009387278490434F
:102CB000D443EF1030174A86CE86EF10204B97573B
:102CC00000009387A77B9043D443EF0000712A86CE
:102CD000AE865285D685EF0050632686A286EF1019
:102CE000E0482686A286EF00406FAA84EDB6B307BF
:102CF000C040370700801347F7FFD18F4111337E63
:102D0000D700FD8306C622C4B3E7C7013703F07FAF
:102D1000AA882E886367F304B307A040C98F6D8F1C
:102D2000FD83D98F2E8F636EF302B70710C0B6975D
:102D3000D18FF9C313D4E64193752400B367A7007C
:102D40001354F8014D8C9DE78947630BF40A8D47B6
:102D5000631FF408975700009387477B8843CC4351
:102D600031A03285B6854686C286852DB240224482
:102D700041018280B367CE00B5C363016E0A630F61
:102D800067043307C74151879307C00363C1E7084E
:102D900063D80600930740FC014581456348F7006E
:102DA0004685C285EF007056292DD52C8547630FC7
:102DB000F40A89476309F40855D8975700009387A8
:102DC000E7779043D443EF10F005975700009387BF
:102DD00067739043D443EF10F00449BF634E0F0470
:102DE000975700009387876A8843CC4341B7B24026
:102DF0002244C285410182802244B240410145A45F
:102E000097570000938707708843CC4385B797573F
:102E100000009387A7678843CC4349BF8947630B6A
:102E2000C705E30FF4FC8D47E306F4F28547630220
:102E3000F406014581451DBF975700009387076E33
:102E40008843CC4325B7975700009387276F90435B
:102E5000D443EF10207D975700009387A76A2A86F6
:102E6000AE868843CC43EF10E07B09B7B7070080FC
:102E7000BD8DEDBD6304F4048D47630AF4028547FC
:102E80006300F40297570000938747678843CC4359
:102E9000F1BD975700009387E7678843CC43F9B5A6
:102EA00097570000938707698843CC43C1B597576C
:102EB00000009387A7678843CC434DBD9757000018
:102EC000938747668843CC4355B541113707F07F58
:102ED00022C426C206C63378B7002E84AA84630DA6
:102EE000E816AE87AA86635FB00E13DE4541630025
:102EF0000E1A370710001306F7FFF18FD98F130E44
:102F00001EC01397170013761E0093D7F601BA97C9
:102F10001397160011C67D838607BA97139726006C
:102F2000135E1E40D945814E814637062000338509
:102F3000C6001358F701FD1563C6A700898FB306B5
:102F4000C500B29E8607C29706070582EDF11305FC
:102F50000002014381483706008019A86385D70E17
:102F60009355F70186077D15AE97060705820DC9B3
:102F7000B3051601E3D4F6FEB388C500368863CEE8
:102F8000050A958FB336B700958F0D8F9355F701CE
:102F900086077D153293C286AE970607058269F9CA
:102FA000D98F9354130089CB93041300FD57858068
:102FB0006314F300850E814413D71E403704E03FAD
:102FC00093FE1E003A9463850E00B7070080DD8CE7
:102FD00013174E012297B24022442685BA859244A7
:102FE000410182801397150005833368A7002E875F
:102FF000E30308FED1E193D5B600AD172E87D606C0
:10300000FDD913D6450159E6014611A02A860607C7
:103010009315B70013051600E3DA05FE93080002C6
:103020003688B388A840BA85B396A60033571801EE
:10303000338EC740B367B7006DBD13C8F8FF135890
:10304000F80136983DBFE36DB7F0B388C500E3C61D
:1030500005FE3E88814715BF2A86AE86EF10001117
:103060002686A2869D2EB2402244AA842E872685DB
:10307000BA859244410182802A86AE86EF10805A3A
:103080002A86AE86EF007028AA842E87A9B72E87DD
:1030900081479DBF3688930800027D5641BF7971F4
:1030A0004AD01399150022D426D256CA06D64ECE3F
:1030B00052CC5AC85EC613591900B70710442E8463
:1030C000AA84AE8A6346F904B707F07F63CE27016E
:1030D000630BF9006353501F975700009387073B1A
:1030E0008443C04309A87DD526862685A286A2856D
:1030F000ED24AA842E84A285B2502254268502593A
:103100009254F249624AD24A424BB24B45618280A4
:10311000B707DC3F6351F91CB707203E634DF91632
:103120007D5A2686A2862685A285EF1020042A864F
:10313000AE862A8BAE8BEF10600397570000938703
:10314000E7419043D4432A89AE89EF102002975774
:103150000000938727419043D44341244A86CE867A
:10316000EF10C00097570000938747409043D44327
:10317000AD244A86CE86EF00707F97570000938774
:10318000673F9043D443912C4A86CE86EF00107E51
:10319000975700009387873E9043D4433D2C4A863F
:1031A000CE86EF00B07C975700009387A73D9043F1
:1031B000D44325245A86DE86EF00507B97570000C3
:1031C0009387C73C9043D4432A8BAE8B4A85CE85E8
:1031D000EF00D079975700009387C73B9043D443C3
:1031E000EF1040444A86CE86EF0050789757000093
:1031F0009387C73A9043D443EF10C0424A86CE86A5
:10320000EF00D076975700009387C7399043D44397
:10321000EF1040414A86CE86EF0050759757000068
:103220009387C7389043D443EF10C03F4A86CE8679
:10323000EF00D0732A86AE865A85DE85792A2686E7
:10324000A286EF00B072FD572A86AE86630EFA069C
:103250000E0A975700009387E737D2979043D443DD
:1032600097570000938707353E9AEF10A03B2686BC
:10327000A286EF10203B2A86AE8603250A0083250E
:103280004A00EF10203AAA842E84E3D60AE63704D7
:1032900000802D8C8DB59757000093872720904391
:1032A000D443252A975700009387471D9043D44362
:1032B000EF00F060E356A0E63DBD9757000093870E
:1032C000E7258443C04305BD2685A285EF108035E0
:1032D000AA842E840DB5F520B707F33F2A84AE8467
:1032E0006356F904B707E63F6359F90A2A86AE86A2
:1032F000ED2097570000938767189043D443014A05
:10330000EF104032975700009387C7239043D44370
:103310002A89AE892285A685C9202A86AE864A8555
:10332000CE85EF00807EAA842E84E5BBB78703405C
:103330006357F904175900001309492103260900AE
:1033400083264900094AEF10E02D03260900832651
:1033500049002A8BAE8B2285A685EF0030619757F6
:1033600000009387A7119043D44385282A86AE8610
:103370005A85DE85EF006079AA842E845DB3975765
:1033800000009387271D8843CC432286A686EF0042
:10339000C0770D4AAA842E8469B317590000130917
:1033A000E90D0326090083264900054AEF1080270E
:1033B0002A8BAE8B03260900832649002285A68529
:1033C0006DB7860585818280014582809757000010
:1033D000938747228843CC4382803708100001112D
:1033E0007D183377B80026CA3378D80093D44501C6
:1033F00013D34601131E37004EC61357D5010E08CE
:103400009357D60193F4F47F1373F37F06CE22CC47
:103410004AC893D9F50193DEF6013367C701131F3C
:10342000350033E80701931F3600338E6440638014
:10343000D9196356C0136304031CB70680009307B1
:10344000F07F3368D800638FF4369307800363C03E
:10345000C735FD4763CDC747130500023305C54196
:10346000B3D7CF01B316A8003399AF00DD8E33393F
:103470002001B357C80133E926011D8F33092F41BD
:10348000B3372F013306F7409317860063D4072420
:10349000370780007D173374E600630C042C228507
:1034A000EF209019130785FF93070002998FB357F8
:1034B000F9003316E400D18F3319E9006341972AEC
:1034C00033059740130615007D47634DC738130732
:1034D0000002118FB356C9003319E9003397E70092
:1034E000558F333920013369270133D6C700814412
:1034F0009377790081CF1377F90091476308F7003C
:1035000013074900333927014A963A8993178600F1
:1035100063D6071C138514009307F07FCE856304E0
:10352000F520B70780FFFD17F18F9398D701135946
:103530003900A607B3E82801B1831375F57F939688
:10354000C7005205F2406244B182FE05C98ECD8E9D
:10355000D2444249B2494685B68505618280631EE0
:103560000E0A138314001373E37F63170322B367F8
:10357000E701B368F801639D041A63870740638617
:1035800008443309FF41B307074133362F0133861F
:10359000C7409317860063D6074C3389EF41B307C2
:1035A000E84033B62F013386C740F68991B76350A0
:1035B000C00F6300030CB70680009307F07F3368E9
:1035C000D800638AF43A9307800363CBC713FD479F
:1035D00063DFC73513090EFE93070002B3562801B7
:1035E000630AFE00130900043309C9413319280195
:1035F000B3EF2F013339F0013369D90031A2B3673A
:10360000F801638A071C9307FEFF638C0738930653
:10361000F07F6309DE1A3E8E0DBDB30593406391C2
:103620000422B367E701638707329387F5FF63815D
:1036300007449306F07F638CD520BE8593078003F3
:1036400063CCB72AFD4763CFB73C930700028D8F49
:103650003319F700B356BF00B317FF003369D90021
:10366000B337F0003357B7003369F9003308E84047
:1036700041ACB367F801638007349307FEFF638AA8
:1036800007209306F07F6308DE2E3E8E2DBF631E5B
:103690000E149386140093F7E67F63910734B367A3
:1036A000E7016395042C6380073EB367F801638EDE
:1036B00007303309FF01B3070701333FE9013386C0
:1036C000E7019317860063D70700B70780FFFD1750
:1036D0007D8E854493777900E39F07E09317D601A9
:1036E00093583900B3E8F800935736001307F07F7A
:1036F000638DE404B207B18313F5F47FCE8581B501
:103700003369F801333920017A99B337E9013386F7
:10371000E70093178600E3DF07FA85049307F07F3D
:103720006396F418CE851305F07F8147814801BD6B
:10373000C1EB6384083A931636009317D8018D8243
:10374000B3E8D700F68993573800B3E7F800F9DB00
:1037500081451305F07FB70708008148CDB33706D0
:1037600080FF7D167D8E93777900998CE39507D83D
:10377000B5B74A85EF20406C13078501FD47E3D5B7
:10378000E7D2130685FFB317C900014905BB3369AA
:10379000F80133392001DDB13309FF413306074118
:1037A00033342F01330486409317840063CD0724FC
:1037B000B3688900E39308CE8147814981441DBFE6
:1037C000E39808F80E059317D7010D81B3E8A70019
:1037D000935737009DBF0E059317D7010D81B3E8AE
:1037E000A700F2849357370011B7330593406382E3
:1037F0000412B70680009307F07F558F630DF32EF8
:103800009307800363CBA720FD4763C3A72A9307D1
:103810000002898F3319F700B356AF00B317FF00CA
:103820003369D900B337F0003357A7003369F90083
:103830003A987E99B337F901338607019A84D1BD4E
:10384000B70680009307F07F558FE319F3DE9317D7
:1038500036008D839318D801B3E81701F689935782
:103860003800E5B5130715FE9306000233D7E700CD
:10387000630AD600930600043386C6403396C70019
:103880003369C900333920013369E90001468144B5
:1038900091B53309FF01B30707013336E9013E96BD
:1038A000931786008544E3D707E28944B70780FF72
:1038B000FD17F18F13571900137919003369270188
:1038C0009398F70133E9280113D6170015B11309AE
:1038D0000EFE93070002B3562801630AFE00130987
:1038E00000043309C94133192801B3EF2F013339DB
:1038F000F0013369D90059B63369E7013339200142
:1039000033892F41B3B72F013306F8409A84F689E3
:10391000A5BEB367E701638207189307F5FF6384C9
:10392000071C9306F07F6304D5123E85D1BD930733
:103930000002B387C741B316F8003399FF0033D6AE
:10394000CF01D18E33392001B357C80133E92601A5
:103950003E975DBB931736008D839318D801B3E86B
:103960001701AE8493573800F68949B3EDC3336924
:10397000F801E31F09DC0E059317D7010D81B36829
:10398000F50093573700D1B36381080E93163600C4
:103990009317D8018D82B3E8D700F6899357380082
:1039A00091BB3309FF41B3070741333F2F013386F2
:1039B000E7418544D1BC0E059317D7010D81B3684B
:1039C000F500F2849357370015B30E059317D7010E
:1039D0000D81B3E8A7009357370029BB9307F07F09
:1039E000E382F6D43309FF013336E901B307070157
:1039F000B2979398F7011359190033E9280113D6A8
:103A00001700B684C1B93389EF413307E84033B6B4
:103A10002F013304C740F68949B43369E7013339CC
:103A2000200101BD938705FE93060002B357F700FE
:103A3000638AD50093060004B385B6403317B700F8
:103A4000336FEF003339E0013369F90055BD931747
:103A500036008D839318D801B3E8170193573800C7
:103A6000EDB1B368C900E39708C68147814959B1F0
:103A70003389EF41B307E84033B62F013386C7409F
:103A8000F689854411B4931636009317D8018D82B8
:103A9000B3E8D70093573800B1B99316360093179F
:103AA000D8018D82B3E8D700AA84935738003DB976
:103AB000930705FE93060002B357F700630AD5008B
:103AC000930600043385A6403317A700336FEF0039
:103AD0003339E0013369F900A9BB81451305F07F53
:103AE000B7070800A9BC3309FF01B3070701333644
:103AF000F9013E9675B3931636009317D8018D825F
:103B0000B3E8D7009357380089B1397193D745018D
:103B100022DC4AD856D22A891394C50006DE26DA5A
:103B20004ED652D45AD05ECE13F5F77F318093DA59
:103B3000F501630B05109307F07F630BF514135A1F
:103B4000D9010E0433648A00370A8000336A4401C5
:103B5000131B3900930415C00144814B13D846014F
:103B60001399C6001378F87FB2881359C90093D906
:103B7000F601630E08089307F07F6300F8041357FB
:103B8000D6010E0933692701130818C0B707800052
:103B90003367F90093183600B38404418145BD476B
:103BA00033C83A0163E4871A97570000938707A543
:103BB0000A043E9410403E9602863367C9009384FF
:103BC0001480631207101364240081488945C1BF23
:103BD0001306F07F81470147B207F2506254520644
:103BE000B1837E08D18FB3E70701D2544259B2594D
:103BF000225A925A025BF24B3A85BE85216182803D
:103C000001481306F07FB70708000147F1B7336793
:103C1000C9004DC7630809304A8532C4EF20C0216E
:103C20002246130755FFF547930685FF998F3319F1
:103C3000D900B357F60033E72701B318D60026950D
:103C40009304353F8145A1BF336A240163030A060B
:103C500036C632C46306042A2285EF20E01D2246C0
:103C6000B246AA84130755FF754A138B84FF330AA3
:103C7000EA4033146401335A4901336A8A00331B22
:103C800069011305D0C0B30495400144814BF9B5D7
:103C9000336A240163180A002144014B9304F07F26
:103CA000894B6DBD228A4A8B31449304F07F8D4B42
:103CB00075B51144014B8144854B4DB51364140017
:103CC00081488545E9BD136434004A878D45C1BDEF
:103CD000630A052E8547898F9306800363DDF632DC
:103CE000014681470147CDBDCE868947638DF53AB0
:103CF0008D47E387F5F085473688E383F5FE138526
:103D0000F43FE357A0FC93F778006396072893D617
:103D100038009317770063D80700B70700FFFD1737
:103D20007D8F138504409307E07FE3C3A7EA131652
:103D3000D70193179700B1833367D6001376F57FC9
:103D400061BDD6865287DA88DE8545B76361472331
:103D5000630DEA20DA86FD145284014B9317870025
:103D600013D388013363F300935E0301B357D40385
:103D7000131F0301135F0F0193D50601139E8800E3
:103D80003374D4033307FF024204C18D63FBE500A3
:103D90009A951386F7FF63EE652663FCE526F9170F
:103DA0009A95998D33D7D503C206C182B3F5D50351
:103DB0003306EF02C205D58D63FBC5009A959306C5
:103DC000F7FF63E6652463F4C52479179A95C20763
:103DD00041645D8F9307F4FF3375F7009358070133
:103DE000935F0E01B377FE00B302F502B386C540C0
:103DF000B383F80293D502013386AF021E962E9646
:103E00003385F803637376002295C168FD189355D6
:103E10000601337616014206B3F81201AA954696BA
:103E200063E6B6126382B6123306CB408D8E333B07
:103E3000CB00338B66411385F43F630C6317B35893
:103E4000DB0393550601337BDB03B3061F03420BF1
:103E500033EB6501637BDB001A9B9385F8FF636D91
:103E60006B20637BDB20F9181A9B330BDB40B356C6
:103E7000DB0342064182337BDB03330FDF02420B5D
:103E800033666601637BE6011A969385F6FF6367E6
:103E9000661E6375E61FF9161A96C208B3E8D800C5
:103EA0009395080193D20801C181B38EF5023306C0
:103EB000E641B385BF0293D60E01B387F202BE95E9
:103EC000AE96B38F5F0263F4F600C167BE9FC16513
:103ED000FD1593D70601ED8EC206B3FEBE00BE9F50
:103EE000F696637FF6091A969387F8FF6369661A58
:103EF0006368F619630FF61BBE8893E8180011B5C6
:103F00004A85EF10707313075501F14593040502BC
:103F10002246B246E3DAE5D4130485FF331A89005A
:103F2000014B85B3328532C4EF1010711307550170
:103F3000F146AA87224613050502E3D6E6CEE1172D
:103F40003317F6008148E5B9E370CBEE729B333549
:103F5000CB011A95AA961305F7FF6378D30263E69F
:103F6000B6106382D5102A87C1B5E3651BDF935570
:103F70001B009316FA0113541A00CD8E7E0BF9BB69
:103F8000E31DF6F7E38F06D6B9BFE31ED3FCE37853
:103F9000CBFD2A8751BD93F7F8009146E389D7D628
:103FA00093B7C8FF9386480093C717008D823E974A
:103FB0008DB381468547E34CA0FEFD58E31C05D038
:103FC000930410C085471385E441B316A70033D688
:103FD000F8003395A800D18E3335A000C98E13F6B2
:103FE00076003357F70001CE93F7F6001146638849
:103FF000C70093874600B3B6D7003697BE8693179F
:10400000870063D80704054681470147F1B6368724
:104010007DBBB28779B3FD46E3D7F6FA0556098E24
:10402000930600023356C7006388D7009387E443A2
:10403000B317F700B3E8F800B3361001D18E13F6CA
:104040007600814701CE93F7F60011460147E392CF
:10405000C7FA931797001316D701B18313D7360009
:10406000518F014695BEE370CBF0729B3335CB0187
:104070001A957917AA964DBBAE88C5BBAE8631BDE1
:1040800093171E0033BEC70172931A96F9183E8E1D
:10409000E315F6E7E307DEC693E818009DB1BE8896
:1040A000E30AF6FF99BD36881306F07F8147014782
:1040B00025B6E367DEFCBE88E310DEFE99B113D7B8
:1040C0004501B7071000FD1713D846011377F77F96
:1040D0009308F07F33F3B7002A8EF58FFD81B28EFF
:1040E0001378F87FFD8263081703630018030DEB54
:1040F000B368A300631408005D8E29CA63850804B1
:104100006388D502054595ED8280B3E8C700E3805A
:1041100008FE795582803365A30065FD630CE802D3
:10412000631408005D8E79DEE39ED5FCE34CE8FC69
:1041300063480701E3E867FC6303F302637FF3006E
:1041400081E57D558280F5DE054582800145E39B52
:1041500008FA82805D8E69DA6DBF01458280E3E3F3
:10416000CEFB0145E372DEFBE5F1E1BF39714AD8D0
:1041700013D945014ED652D456D29399C50006DEC6
:1041800022DC26DA5AD05ECE1379F97F2A8A93D9B7
:10419000C90093DAF501630D090E9307F07F6306FA
:1041A000F9181354D5018E09B3693401370480001E
:1041B00033E4890093143500130919C08149814BF8
:1041C00013D74601139AC6001377F77FB285135AA7
:1041D000CA0013DBF601630B07109307F07F63033C
:1041E000F7049357D6010E0A33EA4701130717C0A5
:1041F000B7078000B367FA00931536003A998148F3
:1042000033C76A01BD463A851308190063E83617BB
:1042100017460000130686428A09B29983A6090050
:10422000B2968286B367CA001309F97F63990712B1
:1042300093E9290081458948E1B701479307F07F59
:104240003704080081443204D20731807E075D8C38
:10425000598CA285F250625426854259D254B259E3
:10426000225A925A025BF24B216182805A853E8427
:10427000AE84C68B8947638DFB0E8D47E38FFBFAB7
:1042800085472A87639EFB3881470144814465BF87
:1042900033E4A90061C036C632C4638C092A4E8556
:1042A000EF1090392246B246AA87130755FF75448E
:1042B000938487FF198CB399990033548A0033642F
:1042C0003401B3149A0013D746011309D0C0139ACE
:1042D000C6001377F77F3309F9408149814BB285D6
:1042E000135ACA0013DBF601E31907EEB367CA00DD
:1042F000B1C7630F0A22528532C4EF10F033224651
:104300002A87930655FFF547930587FF958F331A44
:10431000BA00B357F600B3E74701B315B600330947
:10432000E9401309D9C08148E1BD33E4A90001EC9B
:10433000A14981441309F07F894B59B593E91900CC
:104340008145854875BD4E84AA84B1491309F07F23
:104350008D4BBDB5914981440149854B95B593E994
:104360003900D2878D4869BD89475685E397FBF0B0
:104370002A879307F07F01448144F1B5C16E13860B
:10438000FEFF93D6040113DE0501F18CF18D338617
:1043900095023383B6029358060133059E021A959F
:1043A000AA98B382C60363F36800F692C16F1383C1
:1043B000FFFF33F5670093D30701B3F76800C20727
:1043C000337366003E933306950293D80801B38792
:1043D000A602135F0601B3849302BE94FA94B38ECF
:1043E000760263F3F400FE9E416A9307FAFF935F3F
:1043F0000401B376F400B3F9F4007D8EC1803384F8
:10440000D502C209338FD401B299CE98B307DE0228
:10441000935E0401B385BF02AE97BE9E330EFE03CA
:1044200063F3BE00529EC1679385F7FF33F6BE006B
:104430006D8C4206229693DE0E01B305D502769E60
:104440003385AF0213D40501B386D302AA96A29690
:10445000B38FF30363F3A600BE9F41657D15B3F7E9
:10446000A600C2076D8DAA97B3855800B3B9350170
:10447000FA97B2953384370133B6C500B30EC40141
:104480003385CE0033343401B3B7E701C18F33BE77
:10449000CE0113D406013336C5003E943366CE00F8
:1044A0009394950032947E94B3E46400260493566A
:1044B0007501B3349000DD8193179500CD8C558C38
:1044C000DD8C9317740063DB070093D71400858895
:1044D0009316F401DD8CD58C058042899307F93F52
:1044E0006359F00893F6740081CE93F6F4001146F8
:1044F0006388C60093864400B3B496002694B684BD
:104500009316740063D80600B70700FFFD177D8C73
:10451000930709409306E07F63CFF60E93D63400ED
:104520009314D4012604D58C318093F7F77F21BBF7
:10453000328532C4EF10501093065501F14713072E
:1045400005022246E3D1D7DC6115B317A6008145E9
:10455000F9B3EF10700E13075501F14593070502EB
:104560002246B246E3D5E5D461153314AA0081444E
:1045700099BB85469D8EB1E71309E941B3972401A4
:10458000B3D4D40033192401B337F000B3649900D5
:10459000DD8C93F77400B356D40081CF93F7F40009
:1045A00011466388C70093874400B3B49700A6966A
:1045B000BE849397860063D80704854701448144ED
:1045C00059B113068003E341D6CC7D46E356D6FAB3
:1045D0000556B307F640930500023356F40063878F
:1045E000B6001309E943B3172401DD8CB3349000FE
:1045F000D18C93F67400014499CA93F7F4001146E4
:104600008146E392C7FA139496003180F6068D80B6
:10461000D58C81470DB99307F07F0144814425B1C2
:1046200042896DBD370710007D1701113373B70044
:1046300093D84601758F935ED60122CC26CA0E030D
:1046400093D445019357D5010E0706CE4AC84EC6EE
:1046500093F8F87F130EF07F33E7EE0093F4F47FC6
:1046600013D4F50133E36700131F3500FD82931E59
:1046700036006380C81993C61600B38514416305DC
:10468000D4126351B018638B081AB70780005D8F8E
:104690006381C4599307800363C4B734FD4763C57E
:1046A000B748930700028D8FB3D9BE003318F700C7
:1046B000B39EFE00336838013357B700B339D001D9
:1046C000336838013303E340B3090F41B3373F0187
:1046D0003306F3409317860063D30724370980001D
:1046E0007D1933792601630F092C4A85EF10C074B8
:1046F000130785FF93070002998FB3D7F90033168C
:10470000E900D18FB399E9006344972A058F130616
:104710001700FD4663C5C63A13070002118FB3D6D2
:10472000C9003398E9003397E700558F333800010B
:10473000B369070133D6C700814493F7790081CF6D
:1047400093F6F90091476388F6009386490033B8E1
:1047500036014296B6899317860063D6071C1387E5
:1047600014009307F07F05886306F720B70780FFE2
:10477000FD17F18F1398D70193D93900A607336835
:104780003801B1831377F77F9396C7005207B18240
:104790007E04D98EC18EF2406244D2444249B2496D
:1047A0004285B685056182806356B00A638A081225
:1047B000B70780005D8F6387C42D9307800363C7AD
:1047C000B718FD4763D2B73C138805FE9307000274
:1047D000B3590701638AF50093070004B385B74016
:1047E0003317B700B3EEEE003338D0013368380129
:1047F00095A2B367D7019385148099E393C61600F9
:10480000630AD404D1E19387140093F7E77F639997
:10481000071EB367E3013368D7016392041663820E
:10482000073C63160842131835009316D30113583A
:10483000380033E806019357330019A2B367D70154
:104840006385071A9387F5FF638B073A638CC5234B
:10485000BE8589B56399051C9386140093F7E67F9E
:10486000C1EFB367E30163900436638D0744B36718
:10487000D701639407460E051318D3010D813368E1
:10488000A800935733006DA8B38598406397042020
:10489000B367E301638D07309387F5FF63890740B2
:1048A0001305F07F6383A520BE859307800363C251
:1048B000B72AFD4763C8B73C930700028D8F3318B2
:1048C000F3003356BF00B317FF003368C800B33995
:1048D000F0003353B3003368380133076740B5AC99
:1048E000B367D701638307109387F5FF638F071EB4
:1048F0006380C52FBE85D1B59307F07F638BF60625
:10490000FA9E33B6EE01B307E300B2971398F701AE
:1049100093DE1E00B369D80113D61700B68493F74F
:104920007900E39F07E09317D60113D83900336865
:10493000F800A685935736001307F07F6380E506DD
:10494000B207B18313F7F57F05883DBD3367D70103
:104950003338E000B309E801B3B7E90133866700F3
:1049600093178600E3DD07FA85049307F07F639CC5
:10497000F41805881307F07F8147014831B563912A
:1049800007106301083C131836009317D70113581A
:1049900038003368F800368493573700B367F8005F
:1049A000E9DB01441307F07FB70708000148E9BBC2
:1049B000370680FF7D167D8E93F77900998CE39101
:1049C00007D895B74E85EF10204713078501FD479F
:1049D000E3D2E7D2130685FFB397C90081492DB30F
:1049E0003368D70133380001C5B113183500931768
:1049F000D301135838003368F800935733002DBFA4
:104A0000B309DF413309E34033363F013309C9407D
:104A10009317890063CA072033E82901E31508CCFE
:104A20008147014431BFB385984063810414B706C0
:104A300080009307F07F3363D3006381F8209307EE
:104A4000800363CCB722FD4763C9B72C93070002EC
:104A50008D8F3318F300B356BF00B317FF003368D0
:104A6000D800B339F0003353B300336838011A97D4
:104A7000B309D801B3B7D9013386E700C684CDB5F1
:104A8000E31108F2131835009317D30113583800B7
:104A90003368F8009357330011B737058000930748
:104AA000F07F3363A300E392F8E00E061318D701FA
:104AB0000D823368C800935737003684C5B5051793
:104AC0009306000233D7E700630AD600930600047A
:104AD0003386C6403396C700B3E9C9003338300186
:104AE000B369E800014681441DBDB309DF01B30786
:104AF000E30033BFE9013386E7019317860085445D
:104B0000E3DF07E08944B70780FFFD17F18F13D774
:104B1000190013F81900336807019399F701B3E9F5
:104B2000090113D6170011B9138805FE9307000277
:104B3000B3590701638AF50093070004B385B740B2
:104B40003317B700B3EEEE003338D00133683801C5
:104B5000A5BE3363E30133386000B3890E41B3B7B8
:104B60003E013306F740C6843684ADB6B367E30131
:104B7000638707189387F5FF638C071C9306F07F04
:104B8000638ED50ABE8565BD930700028D8FB3D9AC
:104B9000BE003318F700B39EFE0033683801335768
:104BA000B700B339D001336838013A9365B31318AD
:104BB00036009317D7011358380033E807013684BD
:104BC0009357370095BBBDCB3367D701E31B07DC99
:104BD0000E051318D3010D813368A80093573300D5
:104BE00075BBE30F08E2131836009317D70113586B
:104BF00038003368F80036849357370091B3B3090F
:104C0000DF41B307E340333F3F013386E74185444B
:104C1000D1B4131835009316D3011358380033E874
:104C20000601935733009DBBB389EE4133066740BD
:104C300033B93E0133092641368475B40E06131884
:104C4000D7010D823368C8009357370081BBB30981
:104C5000DF41B307E34033363F013386C740931744
:104C6000860063D7070AB389EE41B3076740B3BE36
:104C70003E013386D7413684C9B43363E301333808
:104C80006000FDB3138805FE93070002B3590301CA
:104C9000638AF50093070004B385B7403313B3006C
:104CA000336F6F003338E001336838017DB5B38965
:104CB000EE41B3076740B3BE3E013386D741368429
:104CC000854409BC131836009317D70113583800D0
:104CD0003368F80093573700A5B1B309DF01B30774
:104CE000E30033BFE9013386E70193178600E3D879
:104CF00007C2B70780FFFD177D8E85440DB10E06F4
:104D00001318D7010D823368C800935737002DB1AF
:104D100033E8C900E30608D019B1138805FE9307EC
:104D20000002B3590301638AF50093070004B385B9
:104D3000B7403313B300336F6F003338E00133688B
:104D400038013DB301441307F07FB70708002DBCBD
:104D5000B309DF01B307E300B3BED9013386D7013E
:104D600069BB13D74501B7071000FD171347F7FFBD
:104D700013D84601FD8DF58F931657011378F87FF0
:104D800099CA1307F07F01456303E8008280D18F41
:104D90003335F0008280C98D0545E5D5828041110B
:104DA000370780007D1713D8750126C2935475010B
:104DB0003373A70093F4F40FB376B7004AC01378A7
:104DC000F80F1359F50106C622C4FD819A8726857E
:104DD0004A86131E3300939E3600B3880441630A4B
:104DE000B90E6350100D630408149307F00F638B22
:104DF000F414B7070004B3EEFE00ED4763C11729B2
:104E000093070002B3871741B397FE00B3D81E0182
:104E1000B337F000B3E7F800B307FE40139757002D
:104E2000635E0718370400047D147D8C2285EF1023
:104E3000A0006D15B317A4006348951A058D1304DF
:104E4000150013070002018F3397E7003337E000A6
:104E5000B3D78700D98F814413F7770019C713F7A9
:104E6000F70091466303D700910713975700635BE0
:104E7000071485041307F00F4A866383E4169A0724
:104E8000A58313F5F40FB2402244A60793147501CD
:104E900013D59700458D7E0692440249518D4101FC
:104EA00082806399080A138714001377E70F63174A
:104EB000071463900422630D0E1EE3860EFCB307F5
:104EC000DE411397570063500722B387CE412E89E6
:104ED00061B7635C100B630E08089307F00F6383E0
:104EE000F406B7070004B3EEFE00ED4763C9171FD1
:104EF00093070002B3871741B397FE00B3D81E0192
:104F0000B337F000B3E7F800F297139757006357F1
:104F1000070A85041307F00F6384E40CB706007ECC
:104F200013D71700FD16858B758FD98F35B7638D15
:104F30000E08FD18B307DE41E38208EE9307F00F79
:104F4000E39DF4EA630D030801461305F00FB7076C
:104F5000400015BF33079840EDE863020E147D173B
:104F6000630807189307F00F6319F80E2E8936832C
:104F7000D1BF638B0E04FD18B307DE01E38708F889
:104F80009307F00FE393F4F675BF63950808850463
:104F900013F7E40F6313071263170510630F0E1462
:104FA000E3830EEEB307DE01139757008144635786
:104FB0000700370700FC7D17F98F854413F777004A
:104FC000E31F07E813D337009307F00FE38CF4F6E1
:104FD00093179300A58313F5F40F4A866DB54A869F
:104FE0001305F00F814745B5370700FC7D17F98F92
:104FF00013F77700898CE31407E6E9B73304DE4141
:105000009317540063C3070CE31204E20146014501
:10501000814795BD33079840ADC49307F00FE3086F
:10502000F8F4B7070004336EFE00ED4763CCE70CDD
:1050300093070002998FB317FE003357EE00B33782
:10504000F000D98FF697C284C9B59307F00FE30F2C
:10505000F8F0B7070004336EFE00ED4763C3E708BE
:1050600093060002998EB316DE00B357EE00333775
:10507000D000D98FB387FE40C2842E8945B38547BF
:1050800061BB630E0E067D17B307DE01C284E30E1B
:1050900007E69307F00FE31AF8F8368365B5368311
:1050A000C2842E8915B7E3040EECE38D0EE869BDCA
:1050B000638D0E022E86B687F9B39307F00FE38156
:1050C000F4F2B307DE018583D5BD3384CE412E894A
:1050D000B1BBE31C0EFCE3890EE62E8949BD854772
:1050E00025B5854741BFE39B07EC0146814761BB7E
:1050F000B387CE41C2842E8915B3B68769B3368390
:10510000C284D9B585473DBF3971935775014AD8D7
:1051100056D25ECE931A95001359F50106DE22DCB5
:1051200026DA4ED652D45AD093F7F70F93DA9A0074
:10513000CA8B638207121307F00F6384E7128E0A8B
:1051400037070004B3EAEA00138A17F80144014B59
:1051500093D775019394950093F7F70FA58093D992
:10516000F501FDC71307F00F6387E7028E049387ED
:1051700017F837070004D98C330AFA408146558C5A
:10518000173700001307874F0A043A941C4033492D
:105190003901BA978287130A1AF0F9E88946558CC3
:1051A00017370000130787510A043A941C4033490B
:1051B0003901BA97828701491307F00FB7074000FA
:1051C00013959700F25062549317770125817E0959
:1051D0005D8D33652501D2544259B259225A925AF3
:1051E000025BF24B216182801307F00F8147C9BF38
:1051F000A68ACE8B368B8947630BFB1A8D47E30C4F
:10520000FBFA8547630AFB0A1307FA0713F91B0029
:105210006357E01293F77A0099C793F7FA00914623
:105220006383D700910A93974A0063D90700B707B1
:1052300000F8FD17B3FAFA0013070A089307E00F06
:10524000E3C4E7FA93976A00A5831377F70F8DBF3E
:10525000B9E48546A9B763940A021144014A054B93
:10526000C5BD63990A002144130AF00F094BCDB55F
:105270008D4631B73144130AF00F0D4BD1BD568521
:105280002EC6EF00703B9307B5FFB39AFA00930761
:10529000A0F8338AA7400144014BB24555BD26858D
:1052A000EF0090391307B5FFB307AA00B394E400E9
:1052B000138A67078146E1B513F91B00014781474F
:1052C00001B74166139554007D1693570501698E09
:1052D00063FA9A0AB3D5FA027D1AD6860147338853
:1052E000C502B3F6F602C206558F637B07012A9703
:1052F0009386F5FF6368A70A6376070BF9152A976B
:1053000033070741B356F7023377F702B38AC60271
:105310009317070163FB5701AA971387F6FF63E111
:10532000A70863FF5707F916AA97C205B38A574122
:10533000D58DB33A5001B3EA5501CA8BF1B5854614
:10534000998E11C76D4601478147E34BD6E6130A94
:10535000EA09339A4A01B3D7DA00B33A4001B3E716
:10536000570113F7770019C713F7F7009146630346
:10537000D700910713975700634807029A07A58340
:1053800001473DBD93D61A00B3D5F6021397FA0133
:1053900041833388C502B1B7CE8B368B814AA1BD1C
:1053A000BA8661B7B685A9BF0547814711BD13F914
:1053B0001B001307F00F814721B5797122D41354D4
:1053C00075014ECE52CC9319950006D626D24AD0FE
:1053D00056CA5AC81374F40F93D99900135AF50199
:1053E00069C49307F00F6308F40E939739003707E9
:1053F0000004B3E9E700130414F88144014B13D708
:105400007501939A95001377F70F93DA9A0013D9E1
:10541000F50145CF9307F00F630CF7028E0A1307CF
:1054200017F8B7070004B3EAFA003A940146334587
:105430002A01BD47AA869305140063E29710173727
:1054400000001307A72B8A04BA949C40BA9782875E
:105450001304F40F63980A0C93E424000946C1BFB7
:1054600001451307F00FB7074000B2502254A607BA
:105470005E07A5837E05D98F92540259F249624A8C
:10548000D24A424B5D8D45618280CA86D689328B75
:1054900089476301FB0A8D47E304FBFC854736859A
:1054A0006312FB1A01478147C9B7639E090413D7EA
:1054B0007501939A95001377F70F91440144054BBA
:1054C00093DA9A0013D9F50131F7639D0A0093E44A
:1054D00014000546A9BF63930902A1441304F00F09
:1054E000094B31BF5685EF0030159307B5FF098C86
:1054F000B39AFA001304A4F8014615BFB14413048B
:10550000F00F0D4BEDBD4E852EC6EF00F012930748
:10551000B5FF1304A0F8B399F900098C8144014B3D
:10552000B245F1BD93E434000D4611B78947D286E8
:10553000E313FBF636851307F00F81473DB7416350
:105540009306F3FF13D6090193D80A01B3F7D900E4
:10555000B3FADA0033885703B389F8021357080106
:10556000B30A5603D6994E97330616036373570151
:105570001A96C167FD17B376F7003378F800C206B4
:10558000C2969399660093570701B3393001E982B7
:10559000B2979A07B3E6D900B3E9D70093974900C9
:1055A00063D9070013D7190093F71900B369F700FF
:1055B0002E841307F4076350E00493F7790099C72A
:1055C00093F7F90091466383D700910993974900B7
:1055D00063D90700B70700F8FD17B3F9F9001307FF
:1055E00004089307E00F63CBE70493976900A58352
:1055F0001377F70F9DBD8547B386E74011C76D460A
:1056000001478147E343D6E61307E4093397E900EE
:105610003337E000B3D7D900D98F13F7770019C714
:1056200013F7F70091466303D700910713975700CC
:10563000634C07009A07A583014705BD1307F00FC8
:10564000814725B52E84B5B70547814739BD370752
:10565000800041117D179356750113D87501B377FA
:10566000A70093F6F60F935EF5013376B70026C2D6
:105670004AC01378F80F06C622C41303F00F3E8EFB
:105680003689F684139F3700FD8113153600B388E1
:1056900006416302681093C51500638CBE10635405
:1056A000100D631008106304051EFD18B307AF400A
:1056B000638608029307F00F6388F616ED4763C709
:1056C000172913070002330717413317E500B357B3
:1056D00015013337E000D98FB307FF401397570008
:1056E0006351071A370400047D147D8C2285A92795
:1056F0006D15B317A400634E251B33052541130414
:10570000150013070002018F3397E7003337E000DD
:10571000B3D78700D98F014913F7770019C713F75B
:10572000F70091466303D700910713975700635E14
:105730000714930619001307F00F93FE14006386F5
:10574000E6169A07A58393F6F60FA607B240224401
:1057500013D59700DE069397FE01558D92440249BA
:105760005D8D410182806392080A138716001377CA
:10577000E70F631B07146394062263020F2071D5A1
:10578000B307AF401397570063550722B307E541AE
:105790000149AE8451B7E30005F0638ABE0AE354C1
:1057A00010FD9307F00F6381F608B70700045D8DC5
:1057B00031B7635E1009630108089307F00F638532
:1057C000F606B70700045D8DED4763C0171F13078A
:1057D0000002330717413317E500B357150133377C
:1057E000E000D98FFA9713975700635C0708050903
:1057F0001307F00F630BE90AB706007E13D71700F3
:10580000FD16858B758FD98F01BF3307D8406395FF
:105810000610630D0F147D176303071A9307F00F2B
:105820006314F810AE84328E630F0E06814E930619
:10583000F00FB707400011BF39C9FD18B307AF001B
:10584000E38308FA9307F00FE390F6F8F1BF63994A
:105850000808138916001377E90F63160712639B74
:10586000061063030F16E30205EEB307AF001397AC
:105870005700014963570700370700FC7D17F98F70
:10588000054913F77700E31C07E813DE3700930799
:10589000F00FE30BF9F893179E00A5839376F90FA9
:1058A00093FE14005DB593FE14009306F00F81473C
:1058B00069BD370700FC7D17F98F13F777003309AF
:1058C000A940E31E07E4D1B73304AF409317540057
:1058D00063C3070CE31C04E0814E81468147B5B5E4
:1058E0003307D840B5C69307F00FE30EF8F2B707B9
:1058F0000004336FFF00ED4763CDE70C9307000210
:10590000998FB317FF003357EF00B337F0005D8F67
:10591000B307A7004289C1BD9307F00FE304F8F075
:10592000B7070004336FFF00ED4763C2E708930732
:105930000002998FB317FF003357EF00B337F00021
:10594000D98FB307F5404289AE8449BB854769B317
:10595000630E0F067D17B307AF004289E30507E822
:105960009307F00FE319F8F8328E7DBD328E42892D
:10597000AE8431BFE3090FEAE30805EA45BD0DCD6A
:10598000AE8EB287D9B39307F00FE300F9F2B307F5
:10599000AF008583FDB53304E541AE8481BBE31DD3
:1059A0000FFCE30505E8AE84BDBD854725BD8547F1
:1059B00049BF0149E39707EC814E814779B3B307AB
:1059C000E5414289AE8419BBB28741B3328E428928
:1059D0007DBD054735BF3706800013577501930716
:1059E000F6FF1377F70F9305E007B3F6A700935779
:1059F000F50163FCE5009305D00963FAE50037057E
:105A000000801345F5FF3E95828001458280930515
:105A10005009D18E63CDE500130660093307E640D7
:105A200033D7E6003305E040F5F33A85828013076B
:105A3000A7F63397E600FDB71357750137068000C8
:105A40009307F6FF1377F70F9305E007B3F6A70068
:105A50009357F501014563F4E50099C38280828084
:105A60009307E0097D55E3EBE7FE93055009B3E7A3
:105A7000C60063D7E5001307A7F63395E7008280D9
:105A8000130560093307E54033D5E70082804111F3
:105A900006C622C426C20DCD9357F54133C4A700D4
:105AA0001D8CAA842285492E9307E0093387A740DD
:105AB00093076009FD8063CCE702A1469377F70F57
:105AC00063D5A60061153314A4002604258021A007
:105AD000814481470144260413559400B240224476
